{
  "contractName": "Property",
  "abi": [
    {
      "constant": true,
      "inputs": [
        {
          "name": "",
          "type": "address"
        }
      ],
      "name": "balances",
      "outputs": [
        {
          "name": "",
          "type": "uint256"
        }
      ],
      "payable": false,
      "stateMutability": "view",
      "type": "function"
    },
    {
      "constant": true,
      "inputs": [
        {
          "name": "",
          "type": "uint256"
        }
      ],
      "name": "plots",
      "outputs": [
        {
          "name": "owner",
          "type": "address"
        },
        {
          "name": "forSale",
          "type": "bool"
        },
        {
          "name": "price",
          "type": "uint256"
        }
      ],
      "payable": false,
      "stateMutability": "view",
      "type": "function"
    },
    {
      "inputs": [],
      "payable": false,
      "stateMutability": "nonpayable",
      "type": "constructor"
    },
    {
      "anonymous": false,
      "inputs": [
        {
          "indexed": false,
          "name": "index",
          "type": "uint256"
        }
      ],
      "name": "PlotOwnerChanged",
      "type": "event"
    },
    {
      "anonymous": false,
      "inputs": [
        {
          "indexed": false,
          "name": "index",
          "type": "uint256"
        },
        {
          "indexed": false,
          "name": "price",
          "type": "uint256"
        }
      ],
      "name": "PlotPriceChanged",
      "type": "event"
    },
    {
      "anonymous": false,
      "inputs": [
        {
          "indexed": false,
          "name": "index",
          "type": "uint256"
        },
        {
          "indexed": false,
          "name": "price",
          "type": "uint256"
        },
        {
          "indexed": false,
          "name": "forSale",
          "type": "bool"
        }
      ],
      "name": "PlotAvailabilityChanged",
      "type": "event"
    },
    {
      "constant": false,
      "inputs": [
        {
          "name": "index",
          "type": "uint256"
        },
        {
          "name": "price",
          "type": "uint256"
        }
      ],
      "name": "plotForSale",
      "outputs": [],
      "payable": false,
      "stateMutability": "nonpayable",
      "type": "function"
    },
    {
      "constant": false,
      "inputs": [
        {
          "name": "index",
          "type": "uint256"
        }
      ],
      "name": "takeOffMarket",
      "outputs": [],
      "payable": false,
      "stateMutability": "nonpayable",
      "type": "function"
    },
    {
      "constant": true,
      "inputs": [],
      "name": "getPlots",
      "outputs": [
        {
          "name": "",
          "type": "address[]"
        },
        {
          "name": "",
          "type": "bool[]"
        },
        {
          "name": "",
          "type": "uint256[]"
        }
      ],
      "payable": false,
      "stateMutability": "view",
      "type": "function"
    },
    {
      "constant": false,
      "inputs": [
        {
          "name": "index",
          "type": "uint256"
        }
      ],
      "name": "buyPlots",
      "outputs": [],
      "payable": true,
      "stateMutability": "payable",
      "type": "function"
    },
    {
      "constant": false,
      "inputs": [],
      "name": "withDraw",
      "outputs": [],
      "payable": true,
      "stateMutability": "payable",
      "type": "function"
    }
  ],
  "bytecode": "0x608060405234801561001057600080fd5b50336000806101000a81548173ffffffffffffffffffffffffffffffffffffffff021916908373ffffffffffffffffffffffffffffffffffffffff1602179055506107d0600260006003811061006257fe5b60020201600101819055506001600260006003811061007d57fe5b6002020160000160146101000a81548160ff0219169083151502179055506107d060026001600381106100ac57fe5b6002020160010181905550600160026001600381106100c757fe5b6002020160000160146101000a81548160ff0219169083151502179055506107d0600280600381106100f557fe5b600202016001018190555060016002806003811061010f57fe5b6002020160000160146101000a81548160ff021916908315150217905550610a808061013c6000396000f3fe6080604052600436106100705760003560e01c80639ce1148c1161004e5780639ce1148c14610171578063b12b83e7146101b6578063d1311446146101e4578063f9cf80a91461021f57610070565b80630fdb1c101461007557806327e235e31461007f57806361bf49ee146100e4575b600080fd5b61007d61031b565b005b34801561008b57600080fd5b506100ce600480360360208110156100a257600080fd5b81019080803573ffffffffffffffffffffffffffffffffffffffff1690602001909291905050506103f8565b6040518082815260200191505060405180910390f35b3480156100f057600080fd5b5061011d6004803603602081101561010757600080fd5b8101908080359060200190929190505050610410565b604051808473ffffffffffffffffffffffffffffffffffffffff1673ffffffffffffffffffffffffffffffffffffffff16815260200183151515158152602001828152602001935050505060405180910390f35b34801561017d57600080fd5b506101b46004803603604081101561019457600080fd5b81019080803590602001909291908035906020019092919050505061046a565b005b6101e2600480360360208110156101cc57600080fd5b810190808035906020019092919050505061055e565b005b3480156101f057600080fd5b5061021d6004803603602081101561020757600080fd5b81019080803590602001909291905050506107d3565b005b34801561022b57600080fd5b506102346108b5565b60405180806020018060200180602001848103845287818151815260200191508051906020019060200280838360005b8381101561027f578082015181840152602081019050610264565b50505050905001848103835286818151815260200191508051906020019060200280838360005b838110156102c15780820151818401526020810190506102a6565b50505050905001848103825285818151815260200191508051906020019060200280838360005b838110156103035780820151818401526020810190506102e8565b50505050905001965050505050505060405180910390f35b60003390506000600160008373ffffffffffffffffffffffffffffffffffffffff1673ffffffffffffffffffffffffffffffffffffffff1681526020019081526020016000205490506000811161037157600080fd5b6000600160008473ffffffffffffffffffffffffffffffffffffffff1673ffffffffffffffffffffffffffffffffffffffff168152602001908152602001600020819055508173ffffffffffffffffffffffffffffffffffffffff166108fc829081150290604051600060405180830381858888f193505050506103f457600080fd5b5050565b60016020528060005260406000206000915090505481565b6002816003811061041d57fe5b600202016000915090508060000160009054906101000a900473ffffffffffffffffffffffffffffffffffffffff16908060000160149054906101000a900460ff16908060010154905083565b60006002836003811061047957fe5b6002020190508060000160009054906101000a900473ffffffffffffffffffffffffffffffffffffffff1673ffffffffffffffffffffffffffffffffffffffff163373ffffffffffffffffffffffffffffffffffffffff161480156104de5750600082115b6104e757600080fd5b60018160000160146101000a81548160ff0219169083151502179055508181600101819055507ff8d85ddec75c998a4715c6f8d537607faa56efa42937f3ed1e18eb6ab0ab4af3838360016040518084815260200183815260200182151515158152602001935050505060405180910390a1505050565b60006002826003811061056d57fe5b6002020190508060000160009054906101000a900473ffffffffffffffffffffffffffffffffffffffff1673ffffffffffffffffffffffffffffffffffffffff163373ffffffffffffffffffffffffffffffffffffffff16141580156105e157508060000160149054906101000a900460ff165b80156105f1575080600101543410155b6105fa57600080fd5b600073ffffffffffffffffffffffffffffffffffffffff168160000160009054906101000a900473ffffffffffffffffffffffffffffffffffffffff1673ffffffffffffffffffffffffffffffffffffffff1614156106c65734600160008060009054906101000a900473ffffffffffffffffffffffffffffffffffffffff1673ffffffffffffffffffffffffffffffffffffffff1673ffffffffffffffffffffffffffffffffffffffff16815260200190815260200160002060008282540192505081905550610738565b34600160008360000160009054906101000a900473ffffffffffffffffffffffffffffffffffffffff1673ffffffffffffffffffffffffffffffffffffffff1673ffffffffffffffffffffffffffffffffffffffff168152602001908152602001600020600082825401925050819055505b338160000160006101000a81548173ffffffffffffffffffffffffffffffffffffffff021916908373ffffffffffffffffffffffffffffffffffffffff16021790555060008160000160146101000a81548160ff0219169083151502179055507fdfae03cf228ff8c45c20fc02b731bb43373364bd428f52e24885f609814ce497826040518082815260200191505060405180910390a15050565b6000600282600381106107e257fe5b6002020190508060000160009054906101000a900473ffffffffffffffffffffffffffffffffffffffff1673ffffffffffffffffffffffffffffffffffffffff163373ffffffffffffffffffffffffffffffffffffffff161461084457600080fd5b60008160000160146101000a81548160ff0219169083151502179055507ff8d85ddec75c998a4715c6f8d537607faa56efa42937f3ed1e18eb6ab0ab4af382826001015460006040518084815260200183815260200182151515158152602001935050505060405180910390a15050565b60608060608060036040519080825280602002602001820160405280156108eb5781602001602082028038833980820191505090505b509050606060036040519080825280602002602001820160405280156109205781602001602082028038833980820191505090505b509050606060036040519080825280602002602001820160405280156109555781602001602082028038833980820191505090505b50905060008090505b6003811015610a425760006002826003811061097657fe5b6002020190508060000160009054906101000a900473ffffffffffffffffffffffffffffffffffffffff168583815181106109ad57fe5b602002602001019073ffffffffffffffffffffffffffffffffffffffff16908173ffffffffffffffffffffffffffffffffffffffff168152505080600101548383815181106109f857fe5b6020026020010181815250508060000160149054906101000a900460ff16848381518110610a2257fe5b60200260200101901515908115158152505050808060010191505061095e565b5082828295509550955050505090919256fea165627a7a723058204f4424e4c9d80a5c53c80a916df351e6fb476c91e3749764381090c05823d0180029",
  "source": "pragma solidity ^0.5.0;\n\ncontract Property{\n    address owner;\n    mapping(address => uint) public balances;\n    struct Plot{\n        address owner;\n        bool forSale;\n        uint price;\n    }\n    Plot[3] public plots;\n\n    event PlotOwnerChanged(\n        uint index\n    );\n\n    event PlotPriceChanged(\n        uint index,\n        uint price\n    );\n\n    event PlotAvailabilityChanged(\n        uint index,\n        uint price,\n        bool forSale\n    );\n    constructor() public {\n        owner = msg.sender;\n        plots[0].price = 2000;\n        plots[0].forSale = true;\n        plots[1].price = 2000;\n        plots[1].forSale = true;\n        plots[2].price = 2000;\n        plots[2].forSale = true;\n    }\n\n    function plotForSale(uint index, uint price) public{\n        Plot storage plot = plots[index];\n\n        require(msg.sender == plot.owner && price > 0);\n        plot.forSale = true;\n        plot.price = price;\n        emit PlotAvailabilityChanged(index, price, true);\n    }\n\n    function takeOffMarket(uint index) public{\n        Plot storage plot = plots[index];\n\n        require(msg.sender == plot.owner);\n\n        plot.forSale = false;\n        emit PlotAvailabilityChanged(index, plot.price, false);\n    }\n\n    function getPlots() public view returns(address[] memory, bool[] memory, uint[] memory){\n        address[] memory addr = new address[](3);\n        bool[] memory available = new bool[](3);\n        uint[] memory price = new uint[](3);\n\n        for(uint i=0; i<3; i++){\n              Plot storage plot = plots[i];\n            addr[i] = plot.owner;\n            price[i] = plot.price;\n            available[i] = plot.forSale;\n        }\n        return(addr,available,price);\n    }\n\n    function buyPlots(uint index) public payable{\n        Plot storage plot = plots[index];\n\n        require(msg.sender != plot.owner && plot.forSale && msg.value >= plot.price);\n\n        if(address(plot.owner) == address(0x0)){\n            balances[owner] += msg.value;\n        } else{\n            balances[plot.owner] += msg.value;\n        }\n        plot.owner =msg.sender;\n        plot.forSale = false;\n        emit PlotOwnerChanged(index);\n    }\n\n    function withDraw() public payable{\n        address payable payee = msg.sender;\n        uint payment = balances[payee];\n\n        require(payment >0);\n\n        balances[payee] = 0;\n        require(payee.send(payment));\n    }\n\n    // function destroy() payable public{\n    //     require(msg.sender == owner);\n    //     selfdestruct(owner);\n    // }\n\n}",
  "sourcePath": "/home/sreeharsha/Documents/RajeshD/codingChallenge/propsearch/src/contracts/Property.sol",
  "compiler": {
    "name": "solc",
    "version": "0.5.8+commit.23d335f2.Emscripten.clang"
  },
  "schemaVersion": "3.0.10",
  "updatedAt": "2019-07-29T10:32:22.701Z",
  "devdoc": {
    "methods": {}
  },
  "userdoc": {
    "methods": {}
  }
}